S00B00005746542E7372656328
S11300000C94C0020C94DD020C94DD020C94DD020D
S11300100C94DD020C94DD020C94DD020C94DD02E0
S11300200C94DD020C94DD020C94DD020C94DD02D0
S11300300C94DD020C94DD020C94DD020C94DD02C0
S11300400C94DD020C94DD020C94DD020C94DD02B0
S11300500C94DD02FA0CF50CF00CFE0C800D800DF6
S11300607D0D7D0D7D0D7D0D7D0D7D0D7D0D7D0D3C
S11300707D0D7D0D7D0D7D0D7D0D7D0D7D0D7D0D2C
S11300807D0D7D0D290D2F0D350D3B0D410D470DBA
S11300904D0D530D590D800D5F0D800D800D800D9C
S11300A0650D6B0D710D740D770D7A0D5F000302F4
S11300B00304040505081100FD0BFD0CFF01940366
S11300C04204B6200500F419210759861907452270
S11300D0071CC5199129230EC68C3951CBB0442D68
S11300E0C312B500241475755961B6549428C944D3
S11300F02D8912A5B28511002514DF8439A1922916
S113010051D216A5A52C694AB4444C002613DF84A9
S1130110596294455914AA95484A6A51264D0127B3
S113012008A3C539961200280C6C7D79512DCA3A62
S1130130666101290C6C7D19612DCC3A65510D2A3B
S11301400CAE943951260D931625002B0BBF8C79D8
S1130150716D18B2B8062C082375399612002D0754
S11301608FA41987002E0792851943002F0FEF7C67
S1130170D9D5388DD3388DD3388D01300DDE8459DF
S11301805A94847E4CA24C02310ADC8479919248C0
S1130190593F320CDE843943128A69B1D761331076
S11301A0DE84394312A6C56C4E5331191200340F44
S11301B0DE8499A12D89BA64C930A615003510DEF4
S11301C08419839256242909D3AA164D00360EDECB
S11301D08459539856164D744C8604370EDE841990
S11301E087300DD3302DA635003811DE8439431203
S11301F01A93281A92D031191200390EDE84394329
S1130200127A5396B4184D003A08B285194338044B
S11302103B0A4375397640514A003C095585995942
S1130220C7B4033D08A694197774183E0A55851976
S113023069C7AC23003F0EDF84398392AA71DA9C2C
S1130240C335004014D784595B258A948A52512AB5
S11302504A454AA21C18044110DF84797135099378
S1130260AC944583925A03420FDE84198312BA2553
S113027083123A0E0B00430CDE845953A6F6398BD5
S11302801600440DDE8419439425A1BF254304457B
S11302900CDE841987B47588D2D661460C5E851944
S11302A087B47588D2AE00470EDE845953A6360D46
S11302B0A131C9A221480BDE8419A1C761103D06F2
S11302C0490A5D85198314F6A7414A0CDE847963D3
S11302D0DA972CC9A2094B12DE8419A12DC992A860
S11302E092295196644928064C09DE841969FF3A1B
S11302F00C4D11DF8419A9BA0DD952512A52244543
S1130300AA354E10DE8419A1B86D4A242552A21DC7
S1130310C5004F0CDE84394312FAC7644800500C00
S1130320DE841983123A0E4BDA155118EF743943EF
S11303301426611226611226611226A544290D7124
S11303400E085210DE841983123A0E4B544BB22419
S11303501403530FDE84394312AA712C57C5644821
S113036000540ADF8419872CEEDF00550BDE841954
S1130370A1FF980C09005611DF8419A935C9A22CD4
S1130380CA2A6192C635005713DF8419A95324453C
S113039052A454946E5116650900580FDE8419A1B5
S11303A098446DA22D6A09C500590FDF8419A99AD2
S11303B0645156099334EE065A0DDE8419D7300D74
S11303C0AB61351D065B0A6C7D1983D67F1B025C0D
S11303D013EF7C193910E7409C03710EC43910E700
S11303E0401C5D0A6C7D1943D67F1B045E0AA7C4BA
S11303F079699255D2005F078F841987006008A33A
S1130400C5198A9405610DC68439439C26C3685373
S11304109600620DDE841969CBA2898E9BB20063BB
S11304200BC6845953A63667D102640CDE84B92DF9
S11304308B367A539600650DC6845953260E831A5B
S113044067D102660CDE8479535A1BA6B437006761
S113045013DE6C398B9664499664D1140F492826AF
S11304604302680BDE841969CBA2893E06690B65D9
S11304708559610E8B7D1A046A0DFD6C997574ECB7
S1130480A3A6250B006B0FDE841969A39644956C13
S11304908B6A49186C095D853962FF34086D11C790
S11304A084198B12455224455224455224156E0A50
S11304B0C68419C9A2893E066F0CC684394312FA50
S11304C0980C0900700EDE6C19C9A2898E9BB2A427
S11304D05500710CDE6C398B367A5396B401720B6D
S11304E0C68419CA2225698F00730CC68439431245
S11304F0CA8EC99000740CD68459693668694F99BC
S1130500027509C68419A1DF9425760FC78419A939
S11305109A645156099334CE00770FC78419A929D8
S11305209222A962CAA22C01780EC68419A1984409
S113053099A8454928067910DE6C19A13189DA9207
S11305404C0DB3240C017A09C68419D7B0D7617B4A
S11305500C6D7D7952D8968969D82A7C07697E19F1
S11305601F027D0C6D7D196AD81A6AC5260D7E0995
S11305709EC4399262520000000004FFFF00000094
S113058011241FBECFE5D8E0DEBFCDBF10E0A0E64A
S1130590B0E0ECE5F2E202C005900D92AC39B1078F
S11305A0D9F725E0ACE9B0E001C01D92A130B20753
S11305B0E1F70E94880D0C942C110C940000AF926A
S11305C0BF92CF92DF92EF92FF920F931F93CF933C
S11305D0DF937C01DC019496BC9094979596DC9112
S11305E09597ED91FC91A188CD2FC12CD12CD701E9
S11305F0ED91FC911197208992960D911C919397FE
S1130600422F50E0440F551F440F551F440F551FF0
S11306104C9DC0014D9D900D5C9D900D1124080FC3
S1130620191F4C2F60E0C7010E94E10ACF5F8C2F95
S11306308D1B8B1528F4BFEFCB1ADB0ACA15B8F251
S1130640DF91CF911F910F91FF90EF90DF90CF90AA
S1130650BF90AF900895FC01A081B18150969C9108
S113066044A1949FA0011124440F551F440F551F0A
S1130670440F551F60E070E082A193A10E943B0EDD
S11306800895CF93DF93EC010E94DF02CE010E9414
S11306901A0BDF91CF91089528E0FC0120838CE9A7
S11306A090E00895CF92DF92EF92FF920F931F9301
S11306B0CF93DF931F92CDB7DEB77C016B01890125
S11306C09A0141E65AE066E77BE00E94BC0CCE0149
S11306D001960E944C03860120EF37E04981BC015A
S11306E0C7010E94E7080F90DF91CF911F910F91EE
S11306F0FF90EF90DF90CF900895FC01E60FF11D7D
S1130700849190E0982F88273196E4918E0F911D63
S1130710089580E008950F931F93CF93DF93EC0126
S11307208B01FB01849188833196E491E983FB0179
S11307303296E491EA83FB013396E491EB83FB0167
S11307403496E491EC83FB013596E491ED83FB014F
S11307503696E491EE83FB013796E491EF83FB0137
S11307603896E491E887FB013996E491E987FB0127
S11307703A96E491EA87FB013B96E491EB87FB010F
S11307803C96E491EC87FB013D96E491ED87FB01F7
S11307903E96E491EE87FB013F96E491EF87FB01DF
S11307A07096E491E88B61E1C8010E947D039A8B05
S11307B0898B63E1C8010E947D039C8B8B8B65E16F
S11307C0C8010E947D039E8B8D8BDF91CF911F9179
S11307D00F910895DC0118969C911897ED91FC9166
S11307E01197249130E0092E02C0359527950A947B
S11307F0E2F7892F860F883010F4E22F0FC031966C
S11308001196FC93EE93E491F0E038E0391B02C0BA
S1130810EE0FFF1F3A95E2F7E22B885018968C935F
S113082081E090E002C0880F991F6A95E2F7815039
S11308308E2308950F931F93CF93DF93EC018C01C4
S1130840075C1F4F7AAF69AFFC01EF5BFF4F10826B
S113085039966081C8010E94EA038FAFFE01E55B0F
S1130860FF4F6081C8010E94EA03FE01E05CFF4F74
S11308708083B3968081B0978083CC5BDF4F91E017
S1130880811190E09883DF91CF911F910F9108958A
S1130890CF93C62F0E94EA03C15021E030E002C08A
S11308A0220F331FCA95E2F7821BCF91089521309E
S11308B031F018F0223029F006C0840F0895860F15
S11308C00895841B0895861B0895213031F018F093
S11308D0223029F006C0860F0895841B0895861BD4
S11308E00895840F08952F923F924F925F926F92D2
S11308F07F928F929F92AF92BF92CF92DF92EF92AC
S1130900FF920F931F93CF93DF9300D000D000D0BA
S1130910CDB7DEB77C016E83342EFC0175AC16AD09
S11309206C01F5E4CF0ED11C5C0182E4A80EB11C6D
S1130930470193E6890E911CF701EC5BFF4FFC83A2
S1130940EB83C7018D5B9F4F9A838983F701F7ADD2
S1130950F719FD835E80F51508F45F2EF70164AC8A
S1130960F6010081212E202F412F672DF70183AD41
S11309700E946504482E202F412F672D862D0E944A
S11309805704332061F0E981FA819081F401908366
S1130990252D482F642DC7010E9452070FC0F50171
S11309A0908191110BC0EB81FC819081F4019083C3
S11309B0252D482F642DC7010E945207FE818D8189
S11309C0F81728F0F81BFE831F5F712CBFCF8E81B0
S11309D0870DF70185AF26AE26960FB6F894DEBFD5
S11309E00FBECDBFDF91CF911F910F91FF90EF907C
S11309F0DF90CF90BF90AF909F908F907F906F903B
S1130A005F904F903F902F9008958F929F92AF9256
S1130A10BF92CF92DF92EF92FF920F931F93CF93E7
S1130A20DF93EC017C0189E3E80EF11CCE010E9406
S1130A301A04FE01E05CFF4F90803C966081C70180
S1130A400E944804B82EFE01E35BFF4F6081C7019A
S1130A500E944804182FFE01E25BFF4F6081C7012A
S1130A600E944804882EDFAC1D140CF079C0FE01EE
S1130A70EB5BFF4F0081190D1195202F412F6B2D3A
S1130A808BAD0E946504C82E8BAF202F412F6B2D98
S1130A908CAD0E9457048CAF013059F028F002301D
S1130AA091F00330D9F023C02D2D2C0D092D080F02
S1130AB020C09C2D991921E02C0D0D2D080FCC245C
S1130AC0C394C90E16C091E0392F3D1921E02C0DB5
S1130AD0991901E0080F890FC30E0BC0292D2C0DA5
S1130AE0982F9D1901E0080F81E0890F02C0082F9B
S1130AF02C2D482F6C2DCE010E94D507882381F11F
S1130B001DAE1EAE5E01E8E4AE0EB11C6E01F9E44A
S1130B10CF0ED11CF5016081C7010E94EA03082FA2
S1130B20F6016081C7010E94EA03182F40E0602F9C
S1130B30CE010E94730441E0612FCE010E94730430
S1130B4061E0C7010E94EA038111F0CF8EAD8915DF
S1130B500CF3FE01ED59FF4FCD5BDF4F888180839D
S1130B60882DDF91CF911F910F91FF90EF90DF902F
S1130B70CF90BF90AF909F908F900895EF92FF9287
S1130B800F931F93CF93DF93FC01C5A9D6A9679652
S1130B906F3F710511F008F036C06136710538F009
S1130BA0E75AFF4F80819181C80FD91F0AC0613471
S1130BB0710538F0FC01E95AFF4F80819181C80F1B
S1130BC0D91FCE010196FC012491222309F45AC0B5
S1130BD0FE01249130E06217730751F406C0FE0150
S1130BE0249130E06217730719F4CE01029652C0C3
S1130BF0FC018491C80FD11DCE010196FC01249102
S1130C002111EDCF42C08B01FC01E55AFF4F8081D9
S1130C109181C80FD91F7E0160E0C7010E947D0346
S1130C20C80FD91F62E0C7010E947D03F4E0EF0EF4
S1130C30F11C8017910780F3FE01849190E0982FB6
S1130C4088273196E4918E2B009711F10817190724
S1130C5039F403C00817190719F4CE0103961AC012
S1130C60FE013296E491CE0FD11DFE01849190E0F5
S1130C70982F88273196E4918E2B009759F780E0BE
S1130C8090E008C080E090E005C080E090E002C001
S1130C9080E090E0DF91CF911F910F91FF90EF9052
S1130CA00895EF92FF920F931F93CF93DF93EC017C
S1130CB0062F142F7901FC01EB5BFF4F80818130FB
S1130CC061F028F0823079F0833099F017C0EFA9F1
S1130CD0F8ADCE010995180F11C0EFA9F8ADCE01FA
S1130CE00995081B0BC0EFA9F8ADCE010995181B97
S1130CF005C0EFA9F8ADCE010995080F0BAF1CAFE5
S1130D00B701CE010E94BE05009729F0BC01CE01B7
S1130D100E94050501C080E0DF91CF911F910F91E2
S1130D20FF90EF900895BF92CF92DF92EF92FF92DF
S1130D300F931F93CF93DF93EC01B62EC42EE22EB4
S1130D40F32E0E9421090E2D1F2DD12C7E0125E4A6
S1130D50E20EF11CF80161918F01EA81FB81CE0161
S1130D6009958F3FFFEF9F07E9F08E3F2FEF920722
S1130D7089F39C014C2D6B2DCE010E945106F70185
S1130D809081913041F028F0923039F0933039F06D
S1130D9007C0B80E05C0C80E03C0B81A01C0C81AEF
S1130DA0D80ED8CF8D2DDF91CF911F910F91FF9049
S1130DB0EF90DF90CF90BF900895E4E1F9E0DC017B
S1130DC01396FC93EE9312970E9493060895FC01E8
S1130DD025A936A9232BE9F1ED5AFF4F20813C9632
S1130DE020833B9740813C96408332973081332364
S1130DF081F1313079F439973081231714F43A961C
S1130E003083FC01EA5AFF4F2081241714F53A96E7
S1130E1020830895FC01E05BFF4FE081DC01AE5AC2
S1130E20BF4F5C91022E000C330B652F052E000C76
S1130E30770B6E0F711DE7FD7A95261737071CF4A3
S1130E401D96E50FEC93541724F4FC01E05AFF4F70
S1130E505083089529E833E0FC0130AF27AB0895AF
S1130E60CF93DF93FC0125A936A92617370751F044
S1130E70EC0176AB65AB8A5B9F4F0E948B03CE017E
S1130E800E94E706DF91CF9108950F93DC019896B5
S1130E903C919897431B5E96ED91FC915F97099561
S1130EA00F9108950F93FC01E35AFF4F30813323D0
S1130EB009F465C0222309F462C0223058F00230DC
S1130EC019F46F5F621B0AC0033021F44F5F421BA9
S1130ED051E02DC0502F517000FD29C0DC019F96B8
S1130EE03C919F97431708F44AC0D0963C91D09701
S1130EF0431708F044C09E963C919E979D965C9142
S1130F00260F261730F4631718F42FEF230F03C0AE
S1130F10652F6317A0F5521790F5651708F4652F30
S1130F20231708F4322F232F261B50E01EC0FC0188
S1130F3035A5631720F136A5631708F530A977A501
S1130F40240F241730F4431718F42FEF230F03C092
S1130F50472F4317A0F4721790F4471708F4472F4C
S1130F60231708F4322F232F241BDC019096ED91D4
S1130F70FC9191970480F581E02D052F09950F913F
S1130F800895461738F4821760F081E0241760F062
S1130F9080E00895821738F481E0241728F080E077
S1130FA0089581E0089580E00895FF920F931F93C0
S1130FB0CF93DF93EC01162FF22E202F68A98FA573
S1130FC00E94C107882331F02F2D412F6EA58DA5D6
S1130FD00E94C107DF91CF911F910F91FF90089557
S1130FE0EF92FF920F93CF93DF937C01342F3770EE
S1130FF081E090E0032E02C0880F991F0A94E2F763
S1131000C82FF701ED59FF4F5081523020F4513071
S113101021F0782F04C070E002C0782FC0E050E0C7
S1131020487FD70192968D919C919397ED91FC9175
S1131030D089D49FF001D59FF00D1124E60FF11D46
S1131040E80FF91F011107C08081872B8C2781933A
S11310502150D1F722C0A7014D595F4F9081972BA2
S11310609C2790833F5F3770215031110EC0D70108
S113107096968C91E80FF11DDA018C91823040F440
S1131080813041F0C1E071E006C0770FCC0F03C09E
S1131090C1E001C071E02111E1CFDF91CF910F9147
S11310A0FF90EF900895FC01A081B18184A1982F55
S11310B0990F990F990F97A350969C91509790323E
S11310C008F09FE1990F990F990F96A345A1942FCA
S11310D0990F990F990F90A751965C915197242FCE
S11310E030E0280F311D652F70E06217730714F488
S11310F0852F841B91A7880F880F880F890F82A7DB
S113110080EF83A754968D919C915597813F9105CB
S113111008F483A756968C9184A708950E945308D7
S113112008950F93CF93DF93EC010CA92AA94BA93F
S113113069A90E94D507811104C0C35ADF4F1882E0
S113114019C081E0FE01E35AFF4F808389A99DA560
S1131150981708F48DA78AA99EA5891708F48EA765
S11311608BA99FA5981708F48FA78CA998A989170C
S113117008F488ABDF91CF910F910895FC0115A677
S113118083A586A781A587A782A580ABCF010E94EE
S1131190910808950F930E9445070F910895DC016B
S11311A0D1961C92D197D3961C92D3978FEFD29657
S11311B08C93D297D4968C93D4979096ED91FC917E
S11311C091970280F381E02DCD01099508950F9345
S11311D01F93CF93DF93EC011EAA1DAA3F8F2E8F7E
S11311E07BA36AA34CA31DA2FC01EE5BFF4F1082FC
S11311F0B0961082319681E080833196808319A362
S113120008A3D801ED91FC91CE010995CE010E946D
S1131210CF08CE010E942A07CB5BDF4F1882DF91F3
S1131220CF911F910F910895662329F06A3031F010
S1131230862F90E008958FEF9FEF08958FEF9FEF33
S11312400895FC01108E0895462FDC011896ED9147
S1131250FC91199720E030E060E2099508959A0125
S1131260DC011896ED91FC911997462F67E10995D9
S11312700895CF93DF931F92CDB7DEB76983AE0194
S11312804F5F5F4F61E00E942F090F90DF91CF9174
S113129008950F931F93CF938C01C62F462F41704F
S11312A069E40E949A0CC6954C2F41706EE4C80103
S11312B00E949A0CC1FB442740F96FE4C8010E94C4
S11312C09A0CCF911F910F910895CF92DF92EF92D4
S11312D0FF920F931F93CF93DF938C01C42E790158
S11312E0683109F457C030F4643109F440C06731FF
S11312F041F073C0693109F45EC0603209F445C03D
S11313006CC0442309F46BC0CA94D12C8FEFC81A63
S1131310D80AC20ED31ED701DD917D01C0E44D2F42
S113132041706C2FC8010E949A0CD695CF5FC834C7
S1131330B1F7E801E881F98146856CE2C8010E94B1
S11313409A0C41E068E4C8010E949A0CE881F98192
S113135047856CE2C8010E949A0C40E068E4C80129
S11313600E949A0CEC14FD04B1F681E039C0DC0152
S1131370ED91FC91418169E40E949A0C40E068E49B
S1131380C8010E949A0C81E02BC06AE40E949A0C66
S113139081E026C0642F0E944909E801A881B9812F
S11313A0EA85FB8520E030E012964C916CE2C8019E
S11313B0099581E015C0FC01A081B1810284F38507
S11313C0E02D20E030E013964C916CE209956C2DF1
S11313D0C8010E94490981E003C080E001C081E0A6
S11313E0DF91CF911F910F91FF90EF90DF90CF90FD
S11313F00895462FDC011696ED91FC91179720E095
S113140030E065E1099508959A01DC011696ED91A5
S1131410FC911797462F67E109950895EF92FF9283
S11314200F931F93CF93DF931F92CDB7DEB77C0149
S11314308B01D8016C916731C1F018F4653130F437
S113144038C06A31F8F06E3F51F133C0F801418180
S11314504983D7011696ED91FC91179720E030E06F
S1131460C70109950E5F1F4FE4CFF801818189837D
S1131470AE014F5F5F4F61E0C7010E94040A0E5F37
S11314801F4FD7CF0F5F1F4FD7011696ED91FC91D9
S1131490179720E030E040E0C7010995CACFF80172
S11314A04181498369E2C7010E949A0C0E5F1F4F74
S11314B0C0CF0F90DF91CF911F910F91FF90EF90CC
S11314C00895EF92FF920F931F93CF93DF938C01B4
S11314D0C62FD42F79016631A1F028F46431E9F0E4
S11314E0653131F025C06731A9F06A3108F515C0BE
S11314F060E00E9424096D2FC8010E94390981E02F
S113150018C060E00E9424096D2FC8010E943909A7
S113151081E00FC061E00E942409D8011896ED9182
S1131520FC91199797014D2F6C2FC801099501C0A3
S113153080E0DF91CF911F910F91FF90EF9008957C
S1131540FC0171836083FB012289FC01248B0895D3
S1131550CF93DF93EC01EA85FB8520E030E040E0A7
S113156068E20995EE81FF8120E030E040E064E12B
S1131570CE01099541E06BE4CE010E949A0CE8810A
S1131580F981448169E2CE010E949A0C40E06BE447
S1131590CE010E949A0CE881F981448169E2CE016E
S11315A00E949A0C41E06BE4CE010E949A0CE881FF
S11315B0F981458169E2CE010E949A0CDF91CF91B5
S11315C008950F931F93CF93DF9300D000D01F9201
S11315D0CDB7DEB76C834D832B831A830983DC017B
S11315E01496ED91FC9115979E012F5F3F4F41E0BA
S11315F06FE009950F900F900F900F900F90DF916F
S1131600CF911F910F910895DC011496ED91FC91F7
S1131610159720E030E040E069E009950895DC0189
S11316201496ED91FC91159720E030E040E06AE0DB
S113163009950895DC011496ED91FC91159720E02D
S113164030E040E060E109950895CF92DF92EF9297
S1131650FF921F93CF93DF937C01EB016A016A81B0
S1131660660F660F660F687360640E94F909F601DD
S11316706481686BC7010E94F9092DC08A8168E002
S1131680680F687F9B81681B961708F4692F860F83
S11316908A83961B9B83162F110F110F110F4881FC
S11316A05981612FC7010E94040A88819981810FA1
S11316B0911D998388838B8181110AC0F6018081F1
S11316C091819983888382818B838C8181508C83DF
S11316D08A81877019F08C818111D0CFDF91CF91ED
S11316E01F91FF90EF90DF90CF900895EF92FF92BB
S11316F00F931F93CF93DF9300D000D01F92CDB7E9
S1131700DEB78C0179016A3089F018F4693041F050
S113171002C16B3009F444C06F3009F4B1C0FBC09E
S113172066E670E00E94A00A81E0F8C00E94A80A60
S1131730D8011696ED91FC91179720E030E041E036
S113174068E1C801099564E870E0C8010E940E0AC6
S1131750D8011696ED91FC91179720E030E040E017
S113176069E1C8010995D8011696ED91FC91179786
S113177020E030E042E068E1C801099564E870E0E7
S1131780C8010E940E0AD8011696ED91FC91179794
S113179020E030E040E069E1C801099581E0BEC085
S11317A0411137C0DC011696ED91FC91179720E0AA
S11317B030E041E068E1099561E870E0C8010E9409
S11317C00E0AD8011696ED91FC91179720E030E0AF
S11317D040E069E1C8010995D8011696ED91FC91A4
S11317E0179720E030E042E068E1C801099561E81C
S11317F070E0C8010E940E0AD8011696ED91FC9182
S1131800179720E030E040E069E1C801099581E0E4
S113181085C0DC011696ED91FC91179720E030E02D
S113182041E068E109956EE770E0C8010E940E0A84
S1131830D8011696ED91FC91179720E030E040E036
S113184069E1C8010995D8011696ED91FC911797A5
S113185020E030E042E068E1C80109956EE770E0FD
S1131860C8010E940E0AD8011696ED91FC911797B3
S113187020E030E040E069E1C801099581E04EC014
S1131880F901808191819A83898383818B839281F9
S11318909C834D838830E8F4D8011696ED91FC9131
S11318A0179720E030E041E068E1C8010995A701FD
S11318B0BE016F5F7F4FC8010E94250BD8011696A9
S11318C0ED91FC91179720E030E040E069E1C80118
S11318D009958B81803108F5D8011696ED91FC911C
S11318E0179720E030E042E068E1C8010995A701BC
S11318F0BE016F5F7F4FC8010E94250BD801169669
S1131900ED91FC91179720E030E040E069E1C801D7
S1131910099581E003C080E001C081E00F900F9041
S11319200F900F900F90DF91CF911F910F91FF9027
S1131930EF900895DC011A96ED91FC911B9720E03D
S113194030E00995089580E00895FC011182108229
S113195083EA9CE095838483978386839187808739
S113196093878287158A108E1486158616861786A5
S11319708FEF868B828F0895AF92BF92CF92DF92C2
S1131980EF92FF920F931F93CF93DF93EC015B01D0
S11319906A0179010E94A50CBD82AC82DF82CE82ED
S11319A0F986E8861B870A87CE010E94040BDF9123
S11319B0CF911F910F91FF90EF90DF90CF90BF9048
S11319C0AF9008950F931F93062F10E0F801B89776
S11319D0EC32F10508F091C0E65DFF4F0C94260E41
S11319E050E014161506ECF08BC050E014161506E2
S11319F01CF186C08FEF87BB81BB82C0242F30E0EF
S1131A00A4E6B0E00E942C0E28EF30E040E050E065
S1131A100E94040E233208F073C0822F0197F1F75D
S1131A206FC080E090E025E32A95F1F7000001966D
S1131A3084179507C1F764C080E090E0EFE9FFE008
S1131A403197F1F700C00000019684179507B1F7AC
S1131A5057C0442311F0D89A53C0D89851C0442396
S1131A6011F0D99A4DC0D9984BC0442311F0DA9A99
S1131A7047C0DA9845C0442311F0DB9A41C0DB9893
S1131A803FC0442311F0DC9A3BC0DC9839C04423A6
S1131A9011F0DD9A35C0DD9833C0442311F0DE9A8D
S1131AA02FC0DE982DC0442311F0DF9A29C0DF989F
S1131AB027C0442311F0909A23C0909821C0442356
S1131AC011F0929A1DC092981BC0442311F0939A6E
S1131AD017C0939815C0442311F0949A11C0949898
S1131AE00FC0FC01118E0CC0FC01118E09C0FC0159
S1131AF0118E06C0FC01118E03C021E0FC01218F70
S1131B0081E01F910F9108958FEF87BB81BB0895EA
S1131B10CF93DF93CDB7DEB764970FB6F894DEBFEB
S1131B200FBECDBF0E94840D22EE3CE045E659E095
S1131B3060E670E08CE994E00E9452038CE994E042
S1131B400E940F0B8CE994E00E942B036CEA70E076
S1131B508CE994E00E94300727E830E042E160E03D
S1131B608CE994E00E94DD068CE994E00E94410334
S1131B702FEF83ED90E3215080409040E1F700C0C7
S1131B80000000E010E00F2EF4E1BF2EF02DFE0166
S1131B9031967F010F2EFEE8CF2EF0E0DF2EF02DE0
S1131BA0F7012B2D11922A95E9F71F930F93DF92DA
S1131BB0CF92FF92EF920E94420E8CE994E00E9431
S1131BC02B036CEA70E08CE994E00E9430079701E3
S1131BD042E160E08CE994E00E94DD068CE994E047
S1131BE00E9441030F5F1F4F8FEF93ECE9E0815098
S1131BF09040E040E1F700C000000F900F900F907C
S1131C000F900F900F90CCCFA1E21A2EAA1BBB1BF2
S1131C10FD010DC0AA1FBB1FEE1FFF1FA217B307B4
S1131C20E407F50720F0A21BB30BE40BF50B661FCA
S1131C30771F881F991F1A9469F76095709580958E
S1131C4090959B01AC01BD01CF010895EE0FFF1FDC
S1131C500590F491E02D0994A29FB001B39FC001B7
S1131C60A39F700D811D1124911DB29F700D811DC4
S1131C701124911D0895DC0101C06D934150504021
S1131C80E0F70895AEE0B0E0E8E4FEE00C94031160
S1131C900D891E8986E08C831A8309838FEF9FE761
S1131CA09E838D83AE01475E5F4F6F89788DCE0131
S1131CB001960E94640EEF81F885E00FF11F1082F7
S1131CC02E96E4E00C941F11ABE0B0E0EAE6FEE0EF
S1131CD00C94F5106C017B018A01FC0117821682B9
S1131CE0838181FFCCC1CE0101963C01F601938131
S1131CF0F70193FD859193FF81917F01882309F476
S1131D00BAC1853239F493FD859193FF81917F01A6
S1131D10853229F4B60190E00E945B10E7CF912C44
S1131D20212C312CFFE1F315D8F08B3279F038F403
S1131D30803279F08332A1F4232D20611DC08D32CD
S1131D4061F0803369F4232D216016C0832D8260F5
S1131D50382EE32DE4603E2E2AC0F32DF8601DC01A
S1131D6037FC2DC020ED280F2A3040F08E32B9F414
S1131D7036FC81C1232D2064322E19C036FE06C0E4
S1131D808AE0989E200D1124922E11C0EAE02E9E26
S1131D90200D1124222EF32DF0623F2E08C08C3624
S1131DA021F4832D8068382E02C0883641F4F7016F
S1131DB093FD859193FF81917F018111B3CF982F7A
S1131DC09F7D9554933028F40C5F1F4F9FE39983B4
S1131DD00DC0833631F0833771F0833509F059C073
S1131DE021C0F801808189830E5F1F4F882483946A
S1131DF0912C530113C02801F2E04F0E511CF8013D
S1131E00A080B18036FE03C0692D70E002C06FEF80
S1131E107FEFC5010E9450104C018201F32DFF7722
S1131E203F2E16C0280122E0420E511CF801A0806A
S1131E30B18036FE03C0692D70E002C06FEF7FEF02
S1131E40C5010E9445104C01F32DF0683F2E82011C
S1131E5033FC1BC0822D90E088169906B0F4B601BD
S1131E6080E290E00E945B102A94F4CFF50137FCE5
S1131E70859137FE81915F01B60190E00E945B106D
S1131E8021102A9421E0821A91088114910471F797
S1131E90E8C0843611F0893641F5F80137FE07C0F1
S1131EA060817181828193810C5F1F4F08C06081C2
S1131EB07181072E000C880B990B0E5F1F4FF32DB9
S1131EC0FF763F2E97FF09C0909580957095619598
S1131ED07F4F8F4F9F4FF0683F2E2AE030E0A301E1
S1131EE00E949710882E861845C0853731F4232D1B
S1131EF02F7EB22E2AE030E025C0932D997FB92E93
S1131F008F36C1F018F4883579F0B5C0803719F0F0
S1131F10883721F0B0C0E92FE061BE2EB4FE0DC0B9
S1131F20FB2DF460BF2E09C034FE0AC0292F2660A1
S1131F30B22E06C028E030E005C020E130E002C047
S1131F4020E132E0F801B7FE07C06081718182812F
S1131F5093810C5F1F4F06C06081718180E090E027
S1131F600E5F1F4FA3010E949710882E8618FB2D29
S1131F70FF773F2E36FE0DC0232D2E7FA22E89140F
S1131F8058F434FE0BC032FC09C0832D8E7EA82E7B
S1131F9005C0B82CA32C03C0B82C01C0B92CA4FED6
S1131FA00FC0FE01E80DF11D8081803321F49A2DCC
S1131FB0997EA92E09C0A2FE06C0B394B39404C0AE
S1131FC08A2D867809F0B394A3FC11C0A0FE06C044
S1131FD0B21488F4280C922C9B180EC0B21460F42E
S1131FE0B60180E290E00E945B10B394F7CFB21484
S1131FF018F42B1802C0982C212CA4FE10C0B60192
S113200080E390E00E945B10A2FE17C0A1FC03C015
S113201088E790E002C088E590E0B6010CC08A2D04
S1132020867859F0A1FE02C08BE201C080E2A7FCD1
S11320308DE2B60190E00E945B10891438F4B60179
S113204080E390E00E945B109A94F7CF8A94F301A6
S1132050E80DF11D8081B60190E00E945B108110B3
S1132060F5CF222009F442CEB60180E290E00E942E
S11320705B102A94F6CFF6018681978102C08FEF18
S11320809FEF2B96E2E10C941111FC010590615035
S113209070400110D8F7809590958E0F9F1F08957A
S11320A0FC016150704001900110D8F78095909523
S11320B08E0F9F1F08950F931F93CF93DF93FB0100
S11320C0238121FD03C08FEF9FEF2CC022FF16C098
S11320D046815781248135814217530744F4A081F6
S11320E0B1819D012F5F3F4F318320838C932681E3
S11320F037812F5F3F4F3783268314C08B01EC0158
S1132100FB010084F185E02D0995892BE1F6D801C6
S113211016968D919C911797019617969C938E9382
S11321201697CE01DF91CF911F910F910895FA0177
S1132130AA27283051F1203181F1E8946F936E7F02
S11321406E5F7F4F8F4F9F4FAF4FB1E03ED0B4E0F3
S11321503CD0670F781F891F9A1FA11D680F791F34
S11321608A1F911DA11D6A0F711D811D911DA11D45
S113217020D009F468943F912AE0269F1124301955
S1132180305D3193DEF6CF010895462F4770405DF0
S11321904193B3E00FD0C9F7F6CF462F4F70405D9F
S11321A04A3318F0495D31FD4052419302D0A9F7FA
S11321B0EACFB4E0A6959795879577956795BA95F4
S11321C0C9F700976105710508959B01AC010A2EBA
S11321D006945795479537952795BA95C9F7620F91
S11321E0731F841F951FA01D08952F923F924F9235
S11321F05F926F927F928F929F92AF92BF92CF9293
S1132200DF92EF92FF920F931F93CF93DF93CDB79B
S1132210DEB7CA1BDB0B0FB6F894DEBF0FBECDBF13
S113222009942A88398848885F846E847D848C84E4
S11322309B84AA84B984C884DF80EE80FD800C81ED
S11322401B81AA81B981CE0FD11D0FB6F894DEBFD0
S10F22500FBECDBFED010895F894FFCF40
S113225C8E08BE08CA080001641401060C4B000960
S113226C3D000004C8FA1008000080004000153E30
S113227CFF153FFF15C0FF48656C6C6F2000436F62
S10F228C756E746572203D20256400000E
S9030000FC
